:100000000C942A000C943F000C943F000C943F0089
:100010000C943F000C943F000C943F000C943F0064
:100020000C943F000C943F000C943F000C943F0054
:100030000C943F000C9448000C943F000C943F003B
:100040000C943F000C943F000C943F000C943F0034
:100050000C943F0011241FBECFE5D8E0DEBFCDBF1A
:1000600010E0A0E6B0E0EAEEF0E002C005900D92EC
:10007000A236B107D9F70E945B000C9473000C9470
:10008000000090BD89B980E98AB986E880BD0895ED
:100090001F920F920FB60F9211248F938CB1809301
:1000A00060008F910F900FBE0F901F9018955D9B71
:1000B000FECF8CB9089510BC83E089B980E98AB974
:1000C00086E880BDB89A789490E38091600081338F
:1000D00011F4C09A05C080916000803309F4C09883
:0A00E00090936000F2CFF894FFCF78
:0200EA003000E4
:00000001FF
